{
  "_format": "hh-sol-artifact-1",
  "contractName": "SemaphoreWhistleblowing",
  "sourceName": "contracts/SemaphoreWhistleblowing.sol",
  "abi": [
    {
      "inputs": [],
      "name": "InvalidInitialization",
      "type": "error"
    },
    {
      "inputs": [],
      "name": "NotInitializing",
      "type": "error"
    },
    {
      "inputs": [],
      "name": "SemaphoreWhistleblowing__CallerIsNotTheEditor",
      "type": "error"
    },
    {
      "anonymous": false,
      "inputs": [
        {
          "indexed": true,
          "internalType": "uint256",
          "name": "entityId",
          "type": "uint256"
        },
        {
          "indexed": true,
          "internalType": "address",
          "name": "editor",
          "type": "address"
        }
      ],
      "name": "EntityCreated",
      "type": "event"
    },
    {
      "anonymous": false,
      "inputs": [
        {
          "indexed": false,
          "internalType": "uint64",
          "name": "version",
          "type": "uint64"
        }
      ],
      "name": "Initialized",
      "type": "event"
    },
    {
      "anonymous": false,
      "inputs": [
        {
          "indexed": true,
          "internalType": "uint256",
          "name": "entityId",
          "type": "uint256"
        },
        {
          "indexed": false,
          "internalType": "uint256",
          "name": "leak",
          "type": "uint256"
        }
      ],
      "name": "LeakPublished",
      "type": "event"
    },
    {
      "inputs": [
        {
          "internalType": "uint256",
          "name": "entityId",
          "type": "uint256"
        },
        {
          "internalType": "uint256",
          "name": "identityCommitment",
          "type": "uint256"
        }
      ],
      "name": "addWhistleblower",
      "outputs": [],
      "stateMutability": "nonpayable",
      "type": "function"
    },
    {
      "inputs": [
        {
          "internalType": "address",
          "name": "editor",
          "type": "address"
        }
      ],
      "name": "createEntity",
      "outputs": [],
      "stateMutability": "nonpayable",
      "type": "function"
    },
    {
      "inputs": [
        {
          "internalType": "address",
          "name": "semaphoreAddress",
          "type": "address"
        }
      ],
      "name": "initialize",
      "outputs": [],
      "stateMutability": "nonpayable",
      "type": "function"
    },
    {
      "inputs": [
        {
          "internalType": "uint256",
          "name": "leak",
          "type": "uint256"
        },
        {
          "internalType": "uint256",
          "name": "nullifier",
          "type": "uint256"
        },
        {
          "internalType": "uint256",
          "name": "entityId",
          "type": "uint256"
        },
        {
          "internalType": "uint256",
          "name": "merkleTreeDepth",
          "type": "uint256"
        },
        {
          "internalType": "uint256",
          "name": "merkleTreeRoot",
          "type": "uint256"
        },
        {
          "internalType": "uint256[8]",
          "name": "proof",
          "type": "uint256[8]"
        }
      ],
      "name": "publishLeak",
      "outputs": [],
      "stateMutability": "nonpayable",
      "type": "function"
    },
    {
      "inputs": [
        {
          "internalType": "uint256",
          "name": "entityId",
          "type": "uint256"
        },
        {
          "internalType": "uint256",
          "name": "identityCommitment",
          "type": "uint256"
        },
        {
          "internalType": "uint256[]",
          "name": "proofSiblings",
          "type": "uint256[]"
        }
      ],
      "name": "removeWhistleblower",
      "outputs": [],
      "stateMutability": "nonpayable",
      "type": "function"
    },
    {
      "inputs": [],
      "name": "semaphore",
      "outputs": [
        {
          "internalType": "contract ISemaphore",
          "name": "",
          "type": "address"
        }
      ],
      "stateMutability": "view",
      "type": "function"
    }
  ],
  "bytecode": "0x608060405234801561001057600080fd5b50610e34806100206000396000f3fe608060405234801561001057600080fd5b50600436106100625760003560e01c80634dd45e29146100675780635b6681ed146100835780637b5d25341461009f5780638fe03587146100bd578063932037cf146100d9578063c4d66de8146100f5575b600080fd5b610081600480360381019061007c919061084c565b610111565b005b61009d60048036038101906100989190610938565b610247565b005b6100a7610377565b6040516100b491906109c4565b60405180910390f35b6100d760048036038101906100d291906109df565b61039b565b005b6100f360048036038101906100ee9190610a7f565b6104c6565b005b61010f600480360381019061010a9190610938565b6105f7565b005b60006040518060c00160405280858152602001848152602001878152602001888152602001868152602001836008806020026040519081016040528092919082600860200280828437600081840152601f19601f820116905080830192505050505050815250905060008054906101000a900473ffffffffffffffffffffffffffffffffffffffff1673ffffffffffffffffffffffffffffffffffffffff1663d0d898dd86836040518363ffffffff1660e01b81526004016101d4929190610c29565b600060405180830381600087803b1580156101ee57600080fd5b505af1158015610202573d6000803e3d6000fd5b50505050847f6575baaf8921e3c2cb37c292eeece0c64152500ecbdd784b09c3d902693702f9886040516102369190610c53565b60405180910390a250505050505050565b60008060009054906101000a900473ffffffffffffffffffffffffffffffffffffffff1673ffffffffffffffffffffffffffffffffffffffff1663575185ed6040518163ffffffff1660e01b81526004016020604051808303816000875af11580156102b7573d6000803e3d6000fd5b505050506040513d601f19601f820116820180604052508101906102db9190610c83565b9050816001600083815260200190815260200160002060006101000a81548173ffffffffffffffffffffffffffffffffffffffff021916908373ffffffffffffffffffffffffffffffffffffffff1602179055508173ffffffffffffffffffffffffffffffffffffffff16817f5340f46ccfdbf46cea681e7481c711c8838cbcda1356cab6f31a2d0b2cd3525a60405160405180910390a35050565b60008054906101000a900473ffffffffffffffffffffffffffffffffffffffff1681565b813373ffffffffffffffffffffffffffffffffffffffff166001600083815260200190815260200160002060009054906101000a900473ffffffffffffffffffffffffffffffffffffffff1673ffffffffffffffffffffffffffffffffffffffff1614610434576040517fb3de227800000000000000000000000000000000000000000000000000000000815260040160405180910390fd5b60008054906101000a900473ffffffffffffffffffffffffffffffffffffffff1673ffffffffffffffffffffffffffffffffffffffff16631783efc384846040518363ffffffff1660e01b815260040161048f929190610cb0565b600060405180830381600087803b1580156104a957600080fd5b505af11580156104bd573d6000803e3d6000fd5b50505050505050565b833373ffffffffffffffffffffffffffffffffffffffff166001600083815260200190815260200160002060009054906101000a900473ffffffffffffffffffffffffffffffffffffffff1673ffffffffffffffffffffffffffffffffffffffff161461055f576040517fb3de227800000000000000000000000000000000000000000000000000000000815260040160405180910390fd5b60008054906101000a900473ffffffffffffffffffffffffffffffffffffffff1673ffffffffffffffffffffffffffffffffffffffff16636cdd32fe868686866040518563ffffffff1660e01b81526004016105be9493929190610d54565b600060405180830381600087803b1580156105d857600080fd5b505af11580156105ec573d6000803e3d6000fd5b505050505050505050565b60006106016107bd565b905060008160000160089054906101000a900460ff1615905060008260000160009054906101000a900467ffffffffffffffff1690506000808267ffffffffffffffff1614801561064f5750825b9050600060018367ffffffffffffffff16148015610684575060003073ffffffffffffffffffffffffffffffffffffffff163b145b905081158015610692575080155b156106c9576040517ff92ee8a900000000000000000000000000000000000000000000000000000000815260040160405180910390fd5b60018560000160006101000a81548167ffffffffffffffff021916908367ffffffffffffffff16021790555083156107195760018560000160086101000a81548160ff0219169083151502179055505b856000806101000a81548173ffffffffffffffffffffffffffffffffffffffff021916908373ffffffffffffffffffffffffffffffffffffffff16021790555083156107b55760008560000160086101000a81548160ff0219169083151502179055507fc7f505b2f371ae2175ee4913f4499e1f2633a7b5936321eed1cdaeb6115181d260016040516107ac9190610de3565b60405180910390a15b505050505050565b60007ff0c57e16840df040f15088dc2f81fe391c3923bec73e23a9662efc9c229c6a00905090565b600080fd5b600080fd5b6000819050919050565b610802816107ef565b811461080d57600080fd5b50565b60008135905061081f816107f9565b92915050565b600080fd5b60008190508260206008028201111561084657610845610825565b5b92915050565b6000806000806000806101a0878903121561086a576108696107e5565b5b600061087889828a01610810565b965050602061088989828a01610810565b955050604061089a89828a01610810565b94505060606108ab89828a01610810565b93505060806108bc89828a01610810565b92505060a06108cd89828a0161082a565b9150509295509295509295565b600073ffffffffffffffffffffffffffffffffffffffff82169050919050565b6000610905826108da565b9050919050565b610915816108fa565b811461092057600080fd5b50565b6000813590506109328161090c565b92915050565b60006020828403121561094e5761094d6107e5565b5b600061095c84828501610923565b91505092915050565b6000819050919050565b600061098a610985610980846108da565b610965565b6108da565b9050919050565b600061099c8261096f565b9050919050565b60006109ae82610991565b9050919050565b6109be816109a3565b82525050565b60006020820190506109d960008301846109b5565b92915050565b600080604083850312156109f6576109f56107e5565b5b6000610a0485828601610810565b9250506020610a1585828601610810565b9150509250929050565b600080fd5b600080fd5b60008083601f840112610a3f57610a3e610a1f565b5b8235905067ffffffffffffffff811115610a5c57610a5b610a24565b5b602083019150836020820283011115610a7857610a77610825565b5b9250929050565b60008060008060608587031215610a9957610a986107e5565b5b6000610aa787828801610810565b9450506020610ab887828801610810565b935050604085013567ffffffffffffffff811115610ad957610ad86107ea565b5b610ae587828801610a29565b925092505092959194509250565b610afc816107ef565b82525050565b610b0b816107ef565b82525050565b600060089050919050565b600081905092915050565b6000819050919050565b6000610b3d8383610b02565b60208301905092915050565b6000602082019050919050565b610b5f81610b11565b610b698184610b1c565b9250610b7482610b27565b8060005b83811015610ba5578151610b8c8782610b31565b9650610b9783610b49565b925050600181019050610b78565b505050505050565b6101a082016000820151610bc46000850182610b02565b506020820151610bd76020850182610b02565b506040820151610bea6040850182610b02565b506060820151610bfd6060850182610b02565b506080820151610c106080850182610b02565b5060a0820151610c2360a0850182610b56565b50505050565b60006101c082019050610c3f6000830185610af3565b610c4c6020830184610bad565b9392505050565b6000602082019050610c686000830184610af3565b92915050565b600081519050610c7d816107f9565b92915050565b600060208284031215610c9957610c986107e5565b5b6000610ca784828501610c6e565b91505092915050565b6000604082019050610cc56000830185610af3565b610cd26020830184610af3565b9392505050565b600082825260208201905092915050565b600080fd5b82818337505050565b6000610d048385610cd9565b93507f07ffffffffffffffffffffffffffffffffffffffffffffffffffffffffffffff831115610d3757610d36610cea565b5b602083029250610d48838584610cef565b82840190509392505050565b6000606082019050610d696000830187610af3565b610d766020830186610af3565b8181036040830152610d89818486610cf8565b905095945050505050565b6000819050919050565b600067ffffffffffffffff82169050919050565b6000610dcd610dc8610dc384610d94565b610965565b610d9e565b9050919050565b610ddd81610db2565b82525050565b6000602082019050610df86000830184610dd4565b9291505056fea2646970667358221220266a56602f4955bab37aa25ee6ba4dfa39f582bf32972003b0c0d066c1618a6464736f6c63430008170033",
  "linkReferences": {},
  "deployedLinkReferences": {}
}