{
  "_format": "hh-sol-artifact-1",
  "contractName": "WhistleblowingFactoryContract",
  "sourceName": "contracts/WhistleblowingFactoryContract.sol",
  "abi": [
    {
      "inputs": [
        {
          "internalType": "address",
          "name": "_implementation",
          "type": "address"
        },
        {
          "internalType": "address",
          "name": "semaphoreAddress",
          "type": "address"
        }
      ],
      "stateMutability": "nonpayable",
      "type": "constructor"
    },
    {
      "inputs": [],
      "name": "ERC1167FailedCreateClone",
      "type": "error"
    },
    {
      "anonymous": false,
      "inputs": [
        {
          "indexed": false,
          "internalType": "address",
          "name": "semaphoreWhistleblowingContract",
          "type": "address"
        },
        {
          "indexed": false,
          "internalType": "uint256",
          "name": "numSemaphoreWhistleblowing",
          "type": "uint256"
        },
        {
          "indexed": false,
          "internalType": "address[]",
          "name": "semaphoreWhistleblowingProxies",
          "type": "address[]"
        }
      ],
      "name": "SemaphoreWhistleblowingCloneCreated",
      "type": "event"
    },
    {
      "inputs": [],
      "name": "createSemaphoreWhistleblowingProxy",
      "outputs": [
        {
          "internalType": "address",
          "name": "semaphoreWhistleblowingProxyContract",
          "type": "address"
        }
      ],
      "stateMutability": "payable",
      "type": "function"
    },
    {
      "inputs": [],
      "name": "getAllSemaphoreWhistleblowing",
      "outputs": [
        {
          "internalType": "address[]",
          "name": "",
          "type": "address[]"
        }
      ],
      "stateMutability": "view",
      "type": "function"
    },
    {
      "inputs": [
        {
          "internalType": "uint8",
          "name": "id",
          "type": "uint8"
        }
      ],
      "name": "getSemaphoreWhistleblowingById",
      "outputs": [
        {
          "internalType": "address",
          "name": "",
          "type": "address"
        }
      ],
      "stateMutability": "view",
      "type": "function"
    },
    {
      "inputs": [],
      "name": "implementation",
      "outputs": [
        {
          "internalType": "address",
          "name": "",
          "type": "address"
        }
      ],
      "stateMutability": "view",
      "type": "function"
    },
    {
      "inputs": [],
      "name": "semaphore",
      "outputs": [
        {
          "internalType": "contract ISemaphore",
          "name": "",
          "type": "address"
        }
      ],
      "stateMutability": "view",
      "type": "function"
    },
    {
      "inputs": [
        {
          "internalType": "uint256",
          "name": "",
          "type": "uint256"
        }
      ],
      "name": "semaphoreWhistleblowingProxies",
      "outputs": [
        {
          "internalType": "address",
          "name": "",
          "type": "address"
        }
      ],
      "stateMutability": "view",
      "type": "function"
    }
  ],
  "bytecode": "0x608060405234801561001057600080fd5b50604051610a75380380610a758339818101604052810190610032919061011d565b80600260006101000a81548173ffffffffffffffffffffffffffffffffffffffff021916908373ffffffffffffffffffffffffffffffffffffffff160217905550816000806101000a81548173ffffffffffffffffffffffffffffffffffffffff021916908373ffffffffffffffffffffffffffffffffffffffff160217905550505061015d565b600080fd5b600073ffffffffffffffffffffffffffffffffffffffff82169050919050565b60006100ea826100bf565b9050919050565b6100fa816100df565b811461010557600080fd5b50565b600081519050610117816100f1565b92915050565b60008060408385031215610134576101336100ba565b5b600061014285828601610108565b925050602061015385828601610108565b9150509250929050565b6109098061016c6000396000f3fe6080604052600436106100555760003560e01c80634ce9e7061461005a5780635c60da1b146100855780637b5d2534146100b05780639582d574146100db578063a88b139414610118578063d17e9e7914610155575b600080fd5b34801561006657600080fd5b5061006f610173565b60405161007c91906105d7565b60405180910390f35b34801561009157600080fd5b5061009a610201565b6040516100a79190610608565b60405180910390f35b3480156100bc57600080fd5b506100c5610225565b6040516100d29190610682565b60405180910390f35b3480156100e757600080fd5b5061010260048036038101906100fd91906106db565b61024b565b60405161010f9190610608565b60405180910390f35b34801561012457600080fd5b5061013f600480360381019061013a919061073e565b610296565b60405161014c9190610608565b60405180910390f35b61015d6102d5565b60405161016a9190610608565b60405180910390f35b606060018054806020026020016040519081016040528092919081815260200182805480156101f757602002820191906000526020600020905b8160009054906101000a900473ffffffffffffffffffffffffffffffffffffffff1673ffffffffffffffffffffffffffffffffffffffff16815260200190600101908083116101ad575b5050505050905090565b60008054906101000a900473ffffffffffffffffffffffffffffffffffffffff1681565b600260009054906101000a900473ffffffffffffffffffffffffffffffffffffffff1681565b600060018260ff16815481106102645761026361076b565b5b9060005260206000200160009054906101000a900473ffffffffffffffffffffffffffffffffffffffff169050919050565b600181815481106102a657600080fd5b906000526020600020016000915054906101000a900473ffffffffffffffffffffffffffffffffffffffff1681565b600061030060008054906101000a900473ffffffffffffffffffffffffffffffffffffffff16610436565b90508073ffffffffffffffffffffffffffffffffffffffff1663c4d66de8600260009054906101000a900473ffffffffffffffffffffffffffffffffffffffff166040518263ffffffff1660e01b815260040161035d9190610608565b600060405180830381600087803b15801561037757600080fd5b505af115801561038b573d6000803e3d6000fd5b505050506001819080600181540180825580915050600190039060005260206000200160009091909190916101000a81548173ffffffffffffffffffffffffffffffffffffffff021916908373ffffffffffffffffffffffffffffffffffffffff1602179055507f28bcbc18c26c8d2b856f036e06a386bbbdca743041dd519f464ffa8b4e909d5d81600180549050600160405161042b93929190610895565b60405180910390a190565b6000763d602d80600a3d3981f3363d3d373d3d3d363d730000008260601b60e81c176000526e5af43d82803e903d91602b57fd5bf38260781b17602052603760096000f09050600073ffffffffffffffffffffffffffffffffffffffff168173ffffffffffffffffffffffffffffffffffffffff16036104e2576040517fc2f868f400000000000000000000000000000000000000000000000000000000815260040160405180910390fd5b919050565b600081519050919050565b600082825260208201905092915050565b6000819050602082019050919050565b600073ffffffffffffffffffffffffffffffffffffffff82169050919050565b600061053e82610513565b9050919050565b61054e81610533565b82525050565b60006105608383610545565b60208301905092915050565b6000602082019050919050565b6000610584826104e7565b61058e81856104f2565b935061059983610503565b8060005b838110156105ca5781516105b18882610554565b97506105bc8361056c565b92505060018101905061059d565b5085935050505092915050565b600060208201905081810360008301526105f18184610579565b905092915050565b61060281610533565b82525050565b600060208201905061061d60008301846105f9565b92915050565b6000819050919050565b600061064861064361063e84610513565b610623565b610513565b9050919050565b600061065a8261062d565b9050919050565b600061066c8261064f565b9050919050565b61067c81610661565b82525050565b60006020820190506106976000830184610673565b92915050565b600080fd5b600060ff82169050919050565b6106b8816106a2565b81146106c357600080fd5b50565b6000813590506106d5816106af565b92915050565b6000602082840312156106f1576106f061069d565b5b60006106ff848285016106c6565b91505092915050565b6000819050919050565b61071b81610708565b811461072657600080fd5b50565b60008135905061073881610712565b92915050565b6000602082840312156107545761075361069d565b5b600061076284828501610729565b91505092915050565b7f4e487b7100000000000000000000000000000000000000000000000000000000600052603260045260246000fd5b6107a381610708565b82525050565b600081549050919050565b60008190508160005260206000209050919050565b60008160001c9050919050565b600073ffffffffffffffffffffffffffffffffffffffff82169050919050565b6000610809610804836107c9565b6107d6565b9050919050565b600061081c82546107f6565b9050919050565b6000600182019050919050565b600061083b826107a9565b61084581856104f2565b9350610850836107b4565b8060005b838110156108885761086582610810565b61086f8882610554565b975061087a83610823565b925050600181019050610854565b5085935050505092915050565b60006060820190506108aa60008301866105f9565b6108b7602083018561079a565b81810360408301526108c98184610830565b905094935050505056fea2646970667358221220f8d4ad889e9a40e3a131f8bdea18578c290f3c483c5a1b0d5dcbfd4bc952b86d64736f6c63430008170033",
  "linkReferences": {},
  "deployedLinkReferences": {}
}